{
  "address": "0x0ad1181cd7F729c76671Cb0A28ac4e74Bc4889A9",
  "abi": [
    {
      "inputs": [
        {
          "internalType": "contract IEntryPoint",
          "name": "_entryPoint",
          "type": "address"
        }
      ],
      "stateMutability": "nonpayable",
      "type": "constructor"
    },
    {
      "anonymous": false,
      "inputs": [
        {
          "indexed": true,
          "internalType": "address",
          "name": "account",
          "type": "address"
        }
      ],
      "name": "MultisigAccountCreated",
      "type": "event"
    },
    {
      "inputs": [],
      "name": "accountImplementation",
      "outputs": [
        {
          "internalType": "contract MultisigAccount",
          "name": "",
          "type": "address"
        }
      ],
      "stateMutability": "view",
      "type": "function"
    },
    {
      "inputs": [
        {
          "internalType": "address",
          "name": "owner1",
          "type": "address"
        },
        {
          "internalType": "address",
          "name": "owner2",
          "type": "address"
        },
        {
          "internalType": "uint256",
          "name": "salt",
          "type": "uint256"
        }
      ],
      "name": "createAccount",
      "outputs": [
        {
          "internalType": "contract MultisigAccount",
          "name": "ret",
          "type": "address"
        }
      ],
      "stateMutability": "nonpayable",
      "type": "function"
    },
    {
      "inputs": [
        {
          "internalType": "address",
          "name": "owner1",
          "type": "address"
        },
        {
          "internalType": "address",
          "name": "owner2",
          "type": "address"
        },
        {
          "internalType": "uint256",
          "name": "salt",
          "type": "uint256"
        }
      ],
      "name": "getAddress",
      "outputs": [
        {
          "internalType": "address",
          "name": "",
          "type": "address"
        }
      ],
      "stateMutability": "view",
      "type": "function"
    }
  ],
  "transactionHash": "0x4bc7667968537149ad3b70605f97bb7f3e986530c61923ffe24eb36394ef9de5",
  "args": [
    "0x7C18eb6F4B9e7a7d65F2fbE9119733367F85563F"
  ],
  "numDeployments": 6,
  "solcInputHash": "ffe4228a3b97f92695d25690e5a06daf",
  "bytecode": "0x60a060405234801561001057600080fd5b5060405161262638038061262683398101604081905261002f91610088565b8060405161003c9061007b565b6001600160a01b039091168152602001604051809103906000f080158015610068573d6000803e3d6000fd5b506001600160a01b0316608052506100b8565b61184a80610ddc83390190565b60006020828403121561009a57600080fd5b81516001600160a01b03811681146100b157600080fd5b9392505050565b608051610cfc6100e06000396000818160870152818161012e01526102980152610cfc6000f3fe608060405234801561001057600080fd5b50600436106100415760003560e01c806308a6354e1461004657806311464fbe146100825780631230aea2146100a9575b600080fd5b61005961005436600461041c565b6100bc565b60405173ffffffffffffffffffffffffffffffffffffffff909116815260200160405180910390f35b6100597f000000000000000000000000000000000000000000000000000000000000000081565b6100596100b736600461041c565b610237565b600061022d8260001b604051806020016100d5906103e6565b7fffffffffffffffffffffffffffffffffffffffffffffffffffffffffffffffe082820381018352601f90910116604081905273ffffffffffffffffffffffffffffffffffffffff8089166024830152871660448201527f000000000000000000000000000000000000000000000000000000000000000090606401604080517fffffffffffffffffffffffffffffffffffffffffffffffffffffffffffffffe0818403018152918152602080830180517bffffffffffffffffffffffffffffffffffffffffffffffffffffffff167f485cc9550000000000000000000000000000000000000000000000000000000017905290516101d69392910161047c565b604080517fffffffffffffffffffffffffffffffffffffffffffffffffffffffffffffffe08184030181529082905261021292916020016104ea565b604051602081830303815290604052805190602001206103b4565b90505b9392505050565b6000806102458585856100bc565b905073ffffffffffffffffffffffffffffffffffffffff81163b801561026d57509050610230565b60405173ffffffffffffffffffffffffffffffffffffffff80881660248301528616604482015284907f000000000000000000000000000000000000000000000000000000000000000090606401604080517fffffffffffffffffffffffffffffffffffffffffffffffffffffffffffffffe08184030181529181526020820180517bffffffffffffffffffffffffffffffffffffffffffffffffffffffff167f485cc955000000000000000000000000000000000000000000000000000000001790525161033b906103e6565b61034692919061047c565b8190604051809103906000f5905080158015610366573d6000803e3d6000fd5b5060405190935073ffffffffffffffffffffffffffffffffffffffff8316907f14a9c4373146171ce7cea4bc898fca4f861e6634f93d24e596ca39ebecf7578690600090a250509392505050565b60006102308383306000604051836040820152846020820152828152600b8101905060ff815360559020949350505050565b6107ad8061051a83390190565b803573ffffffffffffffffffffffffffffffffffffffff8116811461041757600080fd5b919050565b60008060006060848603121561043157600080fd5b61043a846103f3565b9250610448602085016103f3565b9150604084013590509250925092565b60005b8381101561047357818101518382015260200161045b565b50506000910152565b73ffffffffffffffffffffffffffffffffffffffff8316815260406020820152600082518060408401526104b7816060850160208701610458565b601f017fffffffffffffffffffffffffffffffffffffffffffffffffffffffffffffffe016919091016060019392505050565b600083516104fc818460208801610458565b835190830190610510818360208801610458565b0194935050505056fe60806040526040516107ad3803806107ad83398101604081905261002291610319565b61002e82826000610035565b5050610436565b61003e8361006b565b60008251118061004b5750805b156100665761006483836100ab60201b6100291760201c565b505b505050565b610074816100d7565b6040516001600160a01b038216907fbc7cd75a20ee27fd9adebab32041f755214dbc6bffa90cc0225b39da2e5c2d3b90600090a250565b60606100d08383604051806060016040528060278152602001610786602791396101a9565b9392505050565b6100ea8161022260201b6100551760201c565b6101515760405162461bcd60e51b815260206004820152602d60248201527f455243313936373a206e657720696d706c656d656e746174696f6e206973206e60448201526c1bdd08184818dbdb9d1c9858dd609a1b60648201526084015b60405180910390fd5b806101887f360894a13ba1a3210667c828492db98dca3e2076cc3735a920a3ca505d382bbc60001b61023160201b6100711760201c565b80546001600160a01b0319166001600160a01b039290921691909117905550565b6060600080856001600160a01b0316856040516101c691906103e7565b600060405180830381855af49150503d8060008114610201576040519150601f19603f3d011682016040523d82523d6000602084013e610206565b606091505b50909250905061021886838387610234565b9695505050505050565b6001600160a01b03163b151590565b90565b606083156102a357825160000361029c576001600160a01b0385163b61029c5760405162461bcd60e51b815260206004820152601d60248201527f416464726573733a2063616c6c20746f206e6f6e2d636f6e74726163740000006044820152606401610148565b50816102ad565b6102ad83836102b5565b949350505050565b8151156102c55781518083602001fd5b8060405162461bcd60e51b81526004016101489190610403565b634e487b7160e01b600052604160045260246000fd5b60005b838110156103105781810151838201526020016102f8565b50506000910152565b6000806040838503121561032c57600080fd5b82516001600160a01b038116811461034357600080fd5b60208401519092506001600160401b038082111561036057600080fd5b818501915085601f83011261037457600080fd5b815181811115610386576103866102df565b604051601f8201601f19908116603f011681019083821181831017156103ae576103ae6102df565b816040528281528860208487010111156103c757600080fd5b6103d88360208301602088016102f5565b80955050505050509250929050565b600082516103f98184602087016102f5565b9190910192915050565b60208152600082518060208401526104228160408501602087016102f5565b601f01601f19169190910160400192915050565b610341806104456000396000f3fe60806040523661001357610011610017565b005b6100115b610027610022610074565b6100b9565b565b606061004e83836040518060600160405280602781526020016102e5602791396100dd565b9392505050565b73ffffffffffffffffffffffffffffffffffffffff163b151590565b90565b60006100b47f360894a13ba1a3210667c828492db98dca3e2076cc3735a920a3ca505d382bbc5473ffffffffffffffffffffffffffffffffffffffff1690565b905090565b3660008037600080366000845af43d6000803e8080156100d8573d6000f35b3d6000fd5b60606000808573ffffffffffffffffffffffffffffffffffffffff16856040516101079190610277565b600060405180830381855af49150503d8060008114610142576040519150601f19603f3d011682016040523d82523d6000602084013e610147565b606091505b509150915061015886838387610162565b9695505050505050565b606083156101fd5782516000036101f65773ffffffffffffffffffffffffffffffffffffffff85163b6101f6576040517f08c379a000000000000000000000000000000000000000000000000000000000815260206004820152601d60248201527f416464726573733a2063616c6c20746f206e6f6e2d636f6e747261637400000060448201526064015b60405180910390fd5b5081610207565b610207838361020f565b949350505050565b81511561021f5781518083602001fd5b806040517f08c379a00000000000000000000000000000000000000000000000000000000081526004016101ed9190610293565b60005b8381101561026e578181015183820152602001610256565b50506000910152565b60008251610289818460208701610253565b9190910192915050565b60208152600082518060208401526102b2816040850160208701610253565b601f017fffffffffffffffffffffffffffffffffffffffffffffffffffffffffffffffe016919091016040019291505056fe416464726573733a206c6f772d6c6576656c2064656c65676174652063616c6c206661696c6564a2646970667358221220e67fa41f25d682209d79c07815debb550c72479d90129d9416824365b2aa288664736f6c63430008120033416464726573733a206c6f772d6c6576656c2064656c65676174652063616c6c206661696c6564a26469706673582212205b53daa0399ed205a4946f0051bec146e47888314ca9453361398152da6b137764736f6c6343000812003360a060405234801561001057600080fd5b506040516200184a3803806200184a8339810160408190526100319161010c565b6001600160a01b03811660805261004661004c565b5061013c565b600054610100900460ff16156100b85760405162461bcd60e51b815260206004820152602760248201527f496e697469616c697a61626c653a20636f6e747261637420697320696e697469604482015266616c697a696e6760c81b606482015260840160405180910390fd5b60005460ff908116101561010a576000805460ff191660ff9081179091556040519081527f7f26b83ff96e1f2b6a682f133852f6798a09c465da95921460cefb38474024989060200160405180910390a15b565b60006020828403121561011e57600080fd5b81516001600160a01b038116811461013557600080fd5b9392505050565b6080516116dd6200016d600039600081816102b5015281816107b4015281816108870152610be501526116dd6000f3fe6080604052600436106100d55760003560e01c8063527097251161007f578063b61d27f611610059578063b61d27f6146102d9578063bc197c81146102f9578063d087d28814610341578063f23a6e611461035657600080fd5b806352709725146102215780637368891414610273578063b0d691fe146102a657600080fd5b806318dfb3c7116100b057806318dfb3c7146101b35780633a871cdd146101d3578063485cc9551461020157600080fd5b806223de29146100e157806301ffc9a714610108578063150b7a021461013d57600080fd5b366100dc57005b600080fd5b3480156100ed57600080fd5b506101066100fc36600461112e565b5050505050505050565b005b34801561011457600080fd5b506101286101233660046111d9565b61039c565b60405190151581526020015b60405180910390f35b34801561014957600080fd5b5061018261015836600461121b565b7f150b7a020000000000000000000000000000000000000000000000000000000095945050505050565b6040517fffffffff000000000000000000000000000000000000000000000000000000009091168152602001610134565b3480156101bf57600080fd5b506101066101ce3660046112cf565b610481565b3480156101df57600080fd5b506101f36101ee36600461133b565b6105a5565b604051908152602001610134565b34801561020d57600080fd5b5061010661021c36600461138f565b6105cb565b34801561022d57600080fd5b5060015461024e9073ffffffffffffffffffffffffffffffffffffffff1681565b60405173ffffffffffffffffffffffffffffffffffffffff9091168152602001610134565b34801561027f57600080fd5b5060005461024e9062010000900473ffffffffffffffffffffffffffffffffffffffff1681565b3480156102b257600080fd5b507f000000000000000000000000000000000000000000000000000000000000000061024e565b3480156102e557600080fd5b506101066102f43660046113c2565b610761565b34801561030557600080fd5b50610182610314366004611410565b7fbc197c810000000000000000000000000000000000000000000000000000000098975050505050505050565b34801561034d57600080fd5b506101f36107b0565b34801561036257600080fd5b506101826103713660046114aa565b7ff23a6e61000000000000000000000000000000000000000000000000000000009695505050505050565b60007fffffffff0000000000000000000000000000000000000000000000000000000082167f150b7a0200000000000000000000000000000000000000000000000000000000148061042f57507fffffffff0000000000000000000000000000000000000000000000000000000082167f4e2312e000000000000000000000000000000000000000000000000000000000145b8061047b57507fffffffff0000000000000000000000000000000000000000000000000000000082167f01ffc9a700000000000000000000000000000000000000000000000000000000145b92915050565b61048961086f565b8281146104f7576040517f08c379a000000000000000000000000000000000000000000000000000000000815260206004820152601360248201527f77726f6e67206172726179206c656e677468730000000000000000000000000060448201526064015b60405180910390fd5b60005b8381101561059e5761058c85858381811061051757610517611522565b905060200201602081019061052c9190611551565b600085858581811061054057610540611522565b9050602002810190610552919061156c565b8080601f01602080910402602001604051908101604052809392919081815260200183838082843760009201919091525061091092505050565b80610596816115d1565b9150506104fa565b5050505050565b60006105af61086f565b6105b9848461098d565b90506105c482610af2565b9392505050565b600054610100900460ff16158080156105eb5750600054600160ff909116105b806106055750303b158015610605575060005460ff166001145b610691576040517f08c379a000000000000000000000000000000000000000000000000000000000815260206004820152602e60248201527f496e697469616c697a61626c653a20636f6e747261637420697320616c72656160448201527f647920696e697469616c697a656400000000000000000000000000000000000060648201526084016104ee565b600080547fffffffffffffffffffffffffffffffffffffffffffffffffffffffffffffff0016600117905580156106ef57600080547fffffffffffffffffffffffffffffffffffffffffffffffffffffffffffff00ff166101001790555b6106f98383610b5d565b801561075c57600080547fffffffffffffffffffffffffffffffffffffffffffffffffffffffffffff00ff169055604051600181527f7f26b83ff96e1f2b6a682f133852f6798a09c465da95921460cefb38474024989060200160405180910390a15b505050565b61076961086f565b6107aa848484848080601f01602080910402602001604051908101604052809392919081815260200183838082843760009201919091525061091092505050565b50505050565b60007f00000000000000000000000000000000000000000000000000000000000000006040517f35567e1a0000000000000000000000000000000000000000000000000000000081523060048201526000602482015273ffffffffffffffffffffffffffffffffffffffff91909116906335567e1a90604401602060405180830381865afa158015610846573d6000803e3d6000fd5b505050506040513d601f19601f8201168201806040525081019061086a9190611630565b905090565b3373ffffffffffffffffffffffffffffffffffffffff7f0000000000000000000000000000000000000000000000000000000000000000161461090e576040517f08c379a000000000000000000000000000000000000000000000000000000000815260206004820152601c60248201527f6163636f756e743a206e6f742066726f6d20456e747279506f696e740000000060448201526064016104ee565b565b6000808473ffffffffffffffffffffffffffffffffffffffff1684846040516109399190611649565b60006040518083038185875af1925050503d8060008114610976576040519150601f19603f3d011682016040523d82523d6000602084013e61097b565b606091505b50915091508161059e57805160208201fd5b600080806109dc6109a261014087018761156c565b8080601f016020809104026020016040519081016040528093929190818152602001838380828437600092019190915250610c2d92505050565b915091506109e982610d2e565b15806109fb57506109f981610d2e565b155b15610a0b5760019250505061047b565b6000610a64856040517f19457468657265756d205369676e6564204d6573736167653a0a3332000000006020820152603c8101829052600090605c01604051602081830303815290604052805190602001209050919050565b90506000610a728285610db8565b90506000610a808385610db8565b60005490915073ffffffffffffffffffffffffffffffffffffffff8381166201000090920416141580610ace575060015473ffffffffffffffffffffffffffffffffffffffff828116911614155b15610ae15760019550505050505061047b565b506000979650505050505050565b50565b8015610aef5760405160009033907fffffffffffffffffffffffffffffffffffffffffffffffffffffffffffffffff90849084818181858888f193505050503d806000811461059e576040519150601f19603f3d011682016040523d82523d6000602084013e61059e565b600080547fffffffffffffffffffff0000000000000000000000000000000000000000ffff166201000073ffffffffffffffffffffffffffffffffffffffff858116820292909217808455600180547fffffffffffffffffffffffff0000000000000000000000000000000000000000168685169081179091556040519094929091048316927f000000000000000000000000000000000000000000000000000000000000000016917fb99ae72b1788092cfc71a9f6524d9d490f1106df06db3843dff655c0fdb113e991a45050565b6060808251608214610c9b576040517f08c379a000000000000000000000000000000000000000000000000000000000815260206004820152600e60248201527f496e76616c6964206c656e67746800000000000000000000000000000000000060448201526064016104ee565b604080516041808252608082019092529060208201818036833701905050604080516041808252608082019092529193506020820181803683370190505090506020830151604084015160ff6041860151168260208601528160408601528060608601535050506061830151608184015160ff608286015116826020850152816040850152806060850153505050915091565b60008151604114610d4157506000919050565b60208201516040830151604184015160ff169190601b8314801590610d6a57508260ff16601c14155b15610d7a57506000949350505050565b7f7fffffffffffffffffffffffffffffff5d576e7357a4501ddfe92f46681b20a0811115610dad57506000949350505050565b506001949350505050565b6000806000610dc78585610ddc565b91509150610dd481610e21565b509392505050565b6000808251604103610e125760208301516040840151606085015160001a610e0687828585610fd4565b94509450505050610e1a565b506000905060025b9250929050565b6000816004811115610e3557610e35611678565b03610e3d5750565b6001816004811115610e5157610e51611678565b03610eb8576040517f08c379a000000000000000000000000000000000000000000000000000000000815260206004820152601860248201527f45434453413a20696e76616c6964207369676e6174757265000000000000000060448201526064016104ee565b6002816004811115610ecc57610ecc611678565b03610f33576040517f08c379a000000000000000000000000000000000000000000000000000000000815260206004820152601f60248201527f45434453413a20696e76616c6964207369676e6174757265206c656e6774680060448201526064016104ee565b6003816004811115610f4757610f47611678565b03610aef576040517f08c379a000000000000000000000000000000000000000000000000000000000815260206004820152602260248201527f45434453413a20696e76616c6964207369676e6174757265202773272076616c60448201527f756500000000000000000000000000000000000000000000000000000000000060648201526084016104ee565b6000807f7fffffffffffffffffffffffffffffff5d576e7357a4501ddfe92f46681b20a083111561100b57506000905060036110ba565b6040805160008082526020820180845289905260ff881692820192909252606081018690526080810185905260019060a0016020604051602081039080840390855afa15801561105f573d6000803e3d6000fd5b50506040517fffffffffffffffffffffffffffffffffffffffffffffffffffffffffffffffe0015191505073ffffffffffffffffffffffffffffffffffffffff81166110b3576000600192509250506110ba565b9150600090505b94509492505050565b803573ffffffffffffffffffffffffffffffffffffffff811681146110e757600080fd5b919050565b60008083601f8401126110fe57600080fd5b50813567ffffffffffffffff81111561111657600080fd5b602083019150836020828501011115610e1a57600080fd5b60008060008060008060008060c0898b03121561114a57600080fd5b611153896110c3565b975061116160208a016110c3565b965061116f60408a016110c3565b955060608901359450608089013567ffffffffffffffff8082111561119357600080fd5b61119f8c838d016110ec565b909650945060a08b01359150808211156111b857600080fd5b506111c58b828c016110ec565b999c989b5096995094979396929594505050565b6000602082840312156111eb57600080fd5b81357fffffffff00000000000000000000000000000000000000000000000000000000811681146105c457600080fd5b60008060008060006080868803121561123357600080fd5b61123c866110c3565b945061124a602087016110c3565b935060408601359250606086013567ffffffffffffffff81111561126d57600080fd5b611279888289016110ec565b969995985093965092949392505050565b60008083601f84011261129c57600080fd5b50813567ffffffffffffffff8111156112b457600080fd5b6020830191508360208260051b8501011115610e1a57600080fd5b600080600080604085870312156112e557600080fd5b843567ffffffffffffffff808211156112fd57600080fd5b6113098883890161128a565b9096509450602087013591508082111561132257600080fd5b5061132f8782880161128a565b95989497509550505050565b60008060006060848603121561135057600080fd5b833567ffffffffffffffff81111561136757600080fd5b8401610160818703121561137a57600080fd5b95602085013595506040909401359392505050565b600080604083850312156113a257600080fd5b6113ab836110c3565b91506113b9602084016110c3565b90509250929050565b600080600080606085870312156113d857600080fd5b6113e1856110c3565b935060208501359250604085013567ffffffffffffffff81111561140457600080fd5b61132f878288016110ec565b60008060008060008060008060a0898b03121561142c57600080fd5b611435896110c3565b975061144360208a016110c3565b9650604089013567ffffffffffffffff8082111561146057600080fd5b61146c8c838d0161128a565b909850965060608b013591508082111561148557600080fd5b6114918c838d0161128a565b909650945060808b01359150808211156111b857600080fd5b60008060008060008060a087890312156114c357600080fd5b6114cc876110c3565b95506114da602088016110c3565b94506040870135935060608701359250608087013567ffffffffffffffff81111561150457600080fd5b61151089828a016110ec565b979a9699509497509295939492505050565b7f4e487b7100000000000000000000000000000000000000000000000000000000600052603260045260246000fd5b60006020828403121561156357600080fd5b6105c4826110c3565b60008083357fffffffffffffffffffffffffffffffffffffffffffffffffffffffffffffffe18436030181126115a157600080fd5b83018035915067ffffffffffffffff8211156115bc57600080fd5b602001915036819003821315610e1a57600080fd5b60007fffffffffffffffffffffffffffffffffffffffffffffffffffffffffffffffff8203611629577f4e487b7100000000000000000000000000000000000000000000000000000000600052601160045260246000fd5b5060010190565b60006020828403121561164257600080fd5b5051919050565b6000825160005b8181101561166a5760208186018101518583015201611650565b506000920191825250919050565b7f4e487b7100000000000000000000000000000000000000000000000000000000600052602160045260246000fdfea264697066735822122092b50ae6ed799b4ee956c77fcf6263280eac857a8af76ad60621786b290ea0fa64736f6c63430008120033",
  "devdoc": {
    "kind": "dev",
    "methods": {},
    "version": 1
  },
  "userdoc": {
    "kind": "user",
    "methods": {
      "createAccount(address,address,uint256)": {
        "notice": "create an account, and return its address. returns the address even if the account is already deployed. Note that during UserOperation execution, this method is called only if the account is not deployed. This method returns an existing account address so that entryPoint.getSenderAddress() would work even after account creation"
      },
      "getAddress(address,address,uint256)": {
        "notice": "calculate the counterfactual address of this account as it would be returned by createAccount()"
      }
    },
    "notice": "A sample factory contract for MultisigAccount A UserOperations \"initCode\" holds the address of the factory, and a method call (to createAccount, in this sample factory). The factory's createAccount returns the target account address even if it is already installed. This way, the entryPoint.getSenderAddress() can be called either before or after the account is created.",
    "version": 1
  },
  "storageLayout": {
    "storage": [],
    "types": null
  }
}